{
  "_format": "hh-sol-artifact-1",
  "contractName": "ContentLicense",
  "sourceName": "contracts/ContentLicense.sol",
  "abi": [
    {
      "inputs": [
        {
          "internalType": "uint256",
          "name": "_royaltyPercentage",
          "type": "uint256"
        }
      ],
      "stateMutability": "nonpayable",
      "type": "constructor"
    },
    {
      "anonymous": false,
      "inputs": [
        {
          "indexed": true,
          "internalType": "address",
          "name": "contentOwner",
          "type": "address"
        },
        {
          "indexed": false,
          "internalType": "uint256",
          "name": "amount",
          "type": "uint256"
        }
      ],
      "name": "ContentLicensed",
      "type": "event"
    },
    {
      "inputs": [
        {
          "internalType": "address",
          "name": "",
          "type": "address"
        }
      ],
      "name": "contentOwners",
      "outputs": [
        {
          "internalType": "uint256",
          "name": "",
          "type": "uint256"
        }
      ],
      "stateMutability": "view",
      "type": "function"
    },
    {
      "inputs": [],
      "name": "licenseContent",
      "outputs": [],
      "stateMutability": "payable",
      "type": "function"
    },
    {
      "inputs": [],
      "name": "owner",
      "outputs": [
        {
          "internalType": "address",
          "name": "",
          "type": "address"
        }
      ],
      "stateMutability": "view",
      "type": "function"
    },
    {
      "inputs": [],
      "name": "royaltyPercentage",
      "outputs": [
        {
          "internalType": "uint256",
          "name": "",
          "type": "uint256"
        }
      ],
      "stateMutability": "view",
      "type": "function"
    },
    {
      "inputs": [],
      "name": "withdrawRoyalties",
      "outputs": [],
      "stateMutability": "nonpayable",
      "type": "function"
    }
  ],
  "bytecode": "0x608060405234801561001057600080fd5b506040516106bc3803806106bc833981810160405281019061003291906100ba565b336000806101000a81548173ffffffffffffffffffffffffffffffffffffffff021916908373ffffffffffffffffffffffffffffffffffffffff16021790555080600181905550506100e7565b600080fd5b6000819050919050565b61009781610084565b81146100a257600080fd5b50565b6000815190506100b48161008e565b92915050565b6000602082840312156100d0576100cf61007f565b5b60006100de848285016100a5565b91505092915050565b6105c6806100f66000396000f3fe60806040526004361061004a5760003560e01c8063179d5cf01461004f57806321c34fcb1461008c5780638a71bb2d146100a35780638da5cb5b146100ce578063d7a14489146100f9575b600080fd5b34801561005b57600080fd5b5061007660048036038101906100719190610383565b610103565b60405161008391906103c9565b60405180910390f35b34801561009857600080fd5b506100a161011b565b005b3480156100af57600080fd5b506100b86101ee565b6040516100c591906103c9565b60405180910390f35b3480156100da57600080fd5b506100e36101f4565b6040516100f091906103f3565b60405180910390f35b610101610218565b005b60026020528060005260406000206000915090505481565b6000600260003373ffffffffffffffffffffffffffffffffffffffff1673ffffffffffffffffffffffffffffffffffffffff1681526020019081526020016000205490506000600260003373ffffffffffffffffffffffffffffffffffffffff1673ffffffffffffffffffffffffffffffffffffffff168152602001908152602001600020819055503373ffffffffffffffffffffffffffffffffffffffff166108fc829081150290604051600060405180830381858888f193505050501580156101ea573d6000803e3d6000fd5b5050565b60015481565b60008054906101000a900473ffffffffffffffffffffffffffffffffffffffff1681565b6000341161025b576040517f08c379a00000000000000000000000000000000000000000000000000000000081526004016102529061046b565b60405180910390fd5b600060646001543461026d91906104ba565b610277919061052b565b905080600260003373ffffffffffffffffffffffffffffffffffffffff1673ffffffffffffffffffffffffffffffffffffffff16815260200190815260200160002060008282546102c8919061055c565b925050819055503373ffffffffffffffffffffffffffffffffffffffff167ffc7b1efdfb5521476b9872b995a35dc6c02102b0137e07ad9d861683aa49160d3460405161031591906103c9565b60405180910390a250565b600080fd5b600073ffffffffffffffffffffffffffffffffffffffff82169050919050565b600061035082610325565b9050919050565b61036081610345565b811461036b57600080fd5b50565b60008135905061037d81610357565b92915050565b60006020828403121561039957610398610320565b5b60006103a78482850161036e565b91505092915050565b6000819050919050565b6103c3816103b0565b82525050565b60006020820190506103de60008301846103ba565b92915050565b6103ed81610345565b82525050565b600060208201905061040860008301846103e4565b92915050565b600082825260208201905092915050565b7f5061796d656e7420726571756972656400000000000000000000000000000000600082015250565b600061045560108361040e565b91506104608261041f565b602082019050919050565b6000602082019050818103600083015261048481610448565b9050919050565b7f4e487b7100000000000000000000000000000000000000000000000000000000600052601160045260246000fd5b60006104c5826103b0565b91506104d0836103b0565b92508282026104de816103b0565b915082820484148315176104f5576104f461048b565b5b5092915050565b7f4e487b7100000000000000000000000000000000000000000000000000000000600052601260045260246000fd5b6000610536826103b0565b9150610541836103b0565b925082610551576105506104fc565b5b828204905092915050565b6000610567826103b0565b9150610572836103b0565b925082820190508082111561058a5761058961048b565b5b9291505056fea264697066735822122092942e95e143139dd6f62936de590370fa4698fe018705d15505efc7e3f2a4fc64736f6c63430008130033",
  "linkReferences": {},
  "deployedLinkReferences": {}
}